{
  "contractName": "Wallet",
  "abi": [
    {
      "inputs": [
        {
          "internalType": "uint256",
          "name": "",
          "type": "uint256"
        }
      ],
      "name": "funders",
      "outputs": [
        {
          "internalType": "address",
          "name": "",
          "type": "address"
        }
      ],
      "stateMutability": "view",
      "type": "function",
      "constant": true
    },
    {
      "inputs": [
        {
          "internalType": "address",
          "name": "",
          "type": "address"
        }
      ],
      "name": "isFunders",
      "outputs": [
        {
          "internalType": "bool",
          "name": "",
          "type": "bool"
        }
      ],
      "stateMutability": "view",
      "type": "function",
      "constant": true
    },
    {
      "inputs": [],
      "name": "numOfFunders",
      "outputs": [
        {
          "internalType": "uint256",
          "name": "",
          "type": "uint256"
        }
      ],
      "stateMutability": "view",
      "type": "function",
      "constant": true
    },
    {
      "stateMutability": "payable",
      "type": "receive",
      "payable": true
    },
    {
      "inputs": [],
      "name": "addFunder",
      "outputs": [],
      "stateMutability": "payable",
      "type": "function",
      "payable": true
    },
    {
      "inputs": [
        {
          "internalType": "uint256",
          "name": "index",
          "type": "uint256"
        }
      ],
      "name": "getFunderIndex",
      "outputs": [
        {
          "internalType": "address",
          "name": "",
          "type": "address"
        }
      ],
      "stateMutability": "view",
      "type": "function",
      "constant": true
    },
    {
      "inputs": [],
      "name": "getAllFunder",
      "outputs": [
        {
          "internalType": "address[]",
          "name": "",
          "type": "address[]"
        }
      ],
      "stateMutability": "view",
      "type": "function",
      "constant": true
    },
    {
      "inputs": [
        {
          "internalType": "uint256",
          "name": "withdrawAmount",
          "type": "uint256"
        }
      ],
      "name": "withdraw",
      "outputs": [],
      "stateMutability": "nonpayable",
      "type": "function"
    }
  ],
  "bytecode": "0x608060405234801561001057600080fd5b506108ea806100206000396000f3fe6080604052600436106100745760003560e01c806389a620db1161004e57806389a620db146100de578063af7f2c9b1461011b578063cf718fdc14610146578063dc0d3dff146101835761007b565b80630bbf53fb146100805780632e1a7d4d146100ab5780637e7d59b2146100d45761007b565b3661007b57005b600080fd5b34801561008c57600080fd5b506100956101c0565b6040516100a291906105f5565b60405180910390f35b3480156100b757600080fd5b506100d260048036038101906100cd9190610652565b6102b9565b005b6100dc610350565b005b3480156100ea57600080fd5b5061010560048036038101906101009190610652565b61046f565b604051610112919061068e565b60405180910390f35b34801561012757600080fd5b506101306104ac565b60405161013d91906106b8565b60405180910390f35b34801561015257600080fd5b5061016d600480360381019061016891906106ff565b6104b2565b60405161017a9190610747565b60405180910390f35b34801561018f57600080fd5b506101aa60048036038101906101a59190610652565b6104d2565b6040516101b7919061068e565b60405180910390f35b60606000805467ffffffffffffffff8111156101df576101de610762565b5b60405190808252806020026020018201604052801561020d5781602001602082028036833780820191505090505b50905060005b6000548110156102b1576001600082815260200190815260200160002060009054906101000a900473ffffffffffffffffffffffffffffffffffffffff1682828151811061026457610263610791565b5b602002602001019073ffffffffffffffffffffffffffffffffffffffff16908173ffffffffffffffffffffffffffffffffffffffff168152505080806102a9906107ef565b915050610213565b508091505090565b80670de0b6b3a7640000811115610305576040517f08c379a00000000000000000000000000000000000000000000000000000000081526004016102fc90610894565b60405180910390fd5b3373ffffffffffffffffffffffffffffffffffffffff166108fc839081150290604051600060405180830381858888f1935050505015801561034b573d6000803e3d6000fd5b505050565b6000339050600260008273ffffffffffffffffffffffffffffffffffffffff1673ffffffffffffffffffffffffffffffffffffffff16815260200190815260200160002060009054906101000a900460ff1661046c5760008060008154809291906103ba906107ef565b9190505590506001600260008473ffffffffffffffffffffffffffffffffffffffff1673ffffffffffffffffffffffffffffffffffffffff16815260200190815260200160002060006101000a81548160ff021916908315150217905550816001600083815260200190815260200160002060006101000a81548173ffffffffffffffffffffffffffffffffffffffff021916908373ffffffffffffffffffffffffffffffffffffffff160217905550505b50565b60006001600083815260200190815260200160002060009054906101000a900473ffffffffffffffffffffffffffffffffffffffff169050919050565b60005481565b60026020528060005260406000206000915054906101000a900460ff1681565b60016020528060005260406000206000915054906101000a900473ffffffffffffffffffffffffffffffffffffffff1681565b600081519050919050565b600082825260208201905092915050565b6000819050602082019050919050565b600073ffffffffffffffffffffffffffffffffffffffff82169050919050565b600061055c82610531565b9050919050565b61056c81610551565b82525050565b600061057e8383610563565b60208301905092915050565b6000602082019050919050565b60006105a282610505565b6105ac8185610510565b93506105b783610521565b8060005b838110156105e85781516105cf8882610572565b97506105da8361058a565b9250506001810190506105bb565b5085935050505092915050565b6000602082019050818103600083015261060f8184610597565b905092915050565b600080fd5b6000819050919050565b61062f8161061c565b811461063a57600080fd5b50565b60008135905061064c81610626565b92915050565b60006020828403121561066857610667610617565b5b60006106768482850161063d565b91505092915050565b61068881610551565b82525050565b60006020820190506106a3600083018461067f565b92915050565b6106b28161061c565b82525050565b60006020820190506106cd60008301846106a9565b92915050565b6106dc81610551565b81146106e757600080fd5b50565b6000813590506106f9816106d3565b92915050565b60006020828403121561071557610714610617565b5b6000610723848285016106ea565b91505092915050565b60008115159050919050565b6107418161072c565b82525050565b600060208201905061075c6000830184610738565b92915050565b7f4e487b7100000000000000000000000000000000000000000000000000000000600052604160045260246000fd5b7f4e487b7100000000000000000000000000000000000000000000000000000000600052603260045260246000fd5b7f4e487b7100000000000000000000000000000000000000000000000000000000600052601160045260246000fd5b60006107fa8261061c565b91507fffffffffffffffffffffffffffffffffffffffffffffffffffffffffffffffff820361082c5761082b6107c0565b5b600182019050919050565b600082825260208201905092915050565b7f43616e2774207769746864726177206d6f7265207468616e2031455448000000600082015250565b600061087e601d83610837565b915061088982610848565b602082019050919050565b600060208201905081810360008301526108ad81610871565b905091905056fea26469706673582212208edd6de31e2ac1308dc3fca62c9b69b236b662e50d06e3b3e958621f04896d1464736f6c63430008110033",
  "immutableReferences": {},
  "source": "// SPDX-License-Identifier: MIT\r\npragma solidity 0.8.17;\r\n\r\ncontract Wallet {\r\n  uint256 public numOfFunders; // SO LUONG NGUOI DONATE\r\n  mapping(uint256 => address) public funders; // MANG CHUA ADDRESS WALLET DA DONATE\r\n  mapping(address => bool) public isFunders; // CHECK ADDRESS DA DONATE CHUA???\r\n\r\n  receive() external payable {}\r\n\r\n  /*\r\n  ** addFunder()\r\n  ** getFunderIndex(uint256 index) => returns(address)\r\n  ** getAllFunder()                => returns(address[] memory)\r\n  ** modify limitWithdraw(uint256 withdrawAmout)\r\n  ** withdraw(uint256 withdrawAmount)\r\n  */\r\n\r\n  function addFunder() external payable {\r\n    address funder = msg.sender;\r\n    if(!isFunders[funder]) {\r\n      uint index = numOfFunders++;\r\n      isFunders[funder] = true;\r\n      funders[index] = funder;\r\n    }\r\n  }\r\n\r\n  function getFunderIndex(uint256 index) external view returns(address) {\r\n    return funders[index];\r\n  }\r\n\r\n  function getAllFunder() external view returns(address[] memory) {\r\n    address[] memory _funders = new address[](numOfFunders);\r\n    for(uint256 i=0; i<numOfFunders; i++) {\r\n      _funders[i] = funders[i];\r\n    }\r\n    return _funders;\r\n  }\r\n\r\n  modifier limitWithdraw(uint256 withdrawAmount) {\r\n    require(withdrawAmount <= 1*(10**18), \"Can't withdraw more than 1ETH\");\r\n    _;\r\n  }\r\n\r\n  function withdraw(uint256 withdrawAmount) external limitWithdraw(withdrawAmount) {\r\n    payable(msg.sender).transfer(withdrawAmount);\r\n  }\r\n}",
  "sourcePath": "D:\\TrainingSolidity\\solidity-react\\contracts\\Wallet.sol",
  "compiler": {
    "name": "solc",
    "version": "0.8.17+commit.8df45f5f.Emscripten.clang"
  },
  "schemaVersion": "3.4.11",
  "updatedAt": "2022-12-09T04:16:47.553Z",
  "networkType": "ethereum",
  "devdoc": {
    "kind": "dev",
    "methods": {},
    "version": 1
  },
  "userdoc": {
    "kind": "user",
    "methods": {},
    "version": 1
  }
}